S01700004763634170706C69636174696F6E342E7372656358
S11300000C94FA000C940A010C940A010C940A0151
S11300100C940A010C940A010C940A010C940A0130
S11300200C940A010C940A010C940A010C940A0120
S11300300C940A010C940A010C940A010C940A0110
S11300400C940A010C940A010C940A010C940A0100
S11300500C940A010C940A010C940A010C940A01F0
S11300600C940A010C940A010C940A010C940A01E0
S11300700C940A010C940A010C940A010C940A01D0
S11300800C940A010C940A010C940A010C940A01C0
S11300900C940A010C940A010C940A010C940A01B0
S11300A00C940A010C940A010C940A010C940A01A0
S11300B00C940A010C940A010C940A010C940A0190
S11300C00C940A010C940A010C940A010C940A0180
S11300D00C940A010C940A010C940A010C940A0170
S11300E00C940A010C940A010C940A010C940A0160
S11300F00C940A010C940A010C940A010C940A0150
S11301000C940A010C940A010C940A010C940A013F
S11301100C940A010C940A010C940A010C940A012F
S11301200C940A010C940A010C940A010C940A011F
S11301300C940A010C940A010C940A010C940A010F
S11301400C940A010C940A010C940A010C940A01FF
S11301500C940A010C940A010C940A010C940A01EF
S11301600C940A010C940A010C940A010C940A01DF
S11301700C940A010C940A010C940A010C940A01CF
S11301800C940A010C940A010C940A010C940A01BF
S11301900C940A010C940A010C940A010C940A01AF
S11301A00C940A010C940A010C940A010C940A019F
S11301B00C940A010C940A010C940A010C940A018F
S11301C00C940A010C940A010C940A010C940A017F
S11301D00C940A010C940A010C940A010C940A016F
S11301E00C940A010C940A010C940A010C940A015F
S11301F00C940A0111241FBECFEFCDBFDFE3DEBF95
S113020000E00CBF18BE19BE1ABE1BBE0E940C0132
S11302100C943A010C94000081E080938006E0E69F
S1130220F6E088E1808B818B828B838BE0E4F6E0BF
S113023094819860948390819860908390819B7F4F
S11302409083E0EAF8E09BE0968390E9978393E05B
S113025095838483A0E6B6E022E318969C911897D0
S113026050968C9150978923C1F7818185FFFDCFEA
S10B02702083F3CFF894FFCFC3
S9030000FC
