:100000000C94FE000C9424010C9424010C94240103
:100010000C9424010C9424010C9424010C942401CC
:100020000C9424010C9424010C9424010C942401BC
:100030000C9424010C9424010C9424010C942401AC
:100040000C9424010C9424010C9424010C9424019C
:100050000C9424010C9424010C9424010C9424018C
:100060000C9424010C9424010C9424010C9424017C
:100070000C9424010C9424010C9424010C9424016C
:100080000C9424010C9424010C9424010C9424015C
:100090000C9424010C9424010C9424010C9424014C
:1000A0000C9424010C9424010C9424010C9424013C
:1000B0000C9424010C9424010C9424010C9424012C
:1000C0000C9424010C9424010C9424010C9424011C
:1000D0000C9424010C9424010C9424010C9424010C
:1000E0000C9424010C9424010C9424010C942401FC
:1000F0000C9424010C9424010C9424010C942401EC
:100100000C9424010C9424010C9424010C942401DB
:100110000C9424010C9424010C9424010C942401CB
:100120000C9424010C9424010C9424010C942401BB
:100130000C9424010C9424010C9424010C942401AB
:100140000C9424010C9424010C9424010C9424019B
:100150000C9424010C9424010C9424010C9424018B
:100160000C9424010C9424010C9424010C9424017B
:100170000C9424010C9424010C9424010C9424016B
:100180000C9424010C9424010C9424010C9424015B
:100190000C9424010C9424010C9424010C9424014B
:1001A0000C9424010C9424010C9424010C9424013B
:1001B0000C9424010C9424010C9424010C9424012B
:1001C0000C9424010C9424010C9424010C9424011B
:1001D0000C9424010C9424010C9424010C9424010B
:1001E0000C9424010C9424010C9424010C942401FB
:1001F0000C9424010C9468020C947D0211241FBEFF
:10020000CFEFCDBFDFE3DEBF00E00CBF18BE19BEED
:100210001ABE1BBE10E2A0E0B0E2E6E8F2E100E0A8
:100220000BBF02C007900D92AE33B107D9F71BBECA
:1002300020E2AEE3B0E201C01D92A434B207E1F7C0
:100240000E9441010C9441090C94000080931820F5
:10025000909319206093082070930920892B31F026
:100260008EE090E280933E2090933F20672B41F0F8
:10027000EEE3F0E280E090E28483958382839383CF
:100280000895CF93DF93CDB7DEB76097CDBFDEBFC4
:1002900081E0809380060E94B9056DE772E088E6F0
:1002A00092E00E9426010F2EFCE1EF2EF0E2FF2EDD
:1002B000F02D0E94440280FD04C020E329831A82AD
:1002C00003C081E389831A820E94440281FD04C035
:1002D00090E39B831C8203C021E32B831C820E943A
:1002E000440282FD04C080E38D83212C03C091E38E
:1002F0009D83212C0E94440283FD04C020E32E83B1
:10030000312C03C081E38E83312C0E94440284FD92
:1003100004C090E39F83412C03C021E32F83412C31
:100320000E94440285FD04C080E38887512C03C0ED
:1003300091E39887512C0E94440286FD04C020E37B
:100340002987612C03C081E38987612C0E944402C4
:1003500087FD04C090E39A87712C03C021E32A87AC
:10036000712C0E94440290FD04C080E38B87812C95
:1003700003C091E39B87812C0E94440291FD04C03D
:1003800020E32C87912C03C081E38C87912C0E9461
:10039000440292FD04C090E39D87A12C03C021E399
:1003A0002D87A12C0E94440293FD04C080E3888B1A
:1003B000B12C03C091E3988BB12C0E94440294FDB0
:1003C00003C000E3C12C02C001E3C12C0E9444021F
:1003D00095FD03C010E3D12C02C011E3D12C0E9483
:1003E000440296FD04C020E32F871E8603C081E3EC
:1003F0008F871E860E94440299231CF080E390E0C0
:1004000002C081E390E02A812F9329812F932C81D0
:100410002F932B812F932F922D812F933F922E81FB
:100420002F934F922F812F935F9228852F936F9256
:1004300029852F937F922A852F938F922B852F9337
:100440009F922C852F93AF922D852F93BF92288951
:100450002F93CF920F93DF921F932E852F932F858B
:100460002F939F938F93FF92EF920E947306CDBFBD
:10047000DEBF8AE090E00E9487068FE493EC01974C
:10048000F1F700C0000015CFE0E6F6E01086148218
:1004900080E090E00895E0EAF8E081818823ECF7BD
:1004A000E0EAF8E0808121812C7190E4299F90019D
:1004B000112441E050E08D3011F040E050E0242B59
:1004C000352B232B11F490E008958AE090E00895F5
:1004D0000E944B020895CF93C82F8A3019F48DE003
:1004E0000E946B02E0EAF8E0818185FFFDCFC093B6
:1004F000A00880E090E0CF9108950E946B020895DB
:100500004F925F926F927F928F929F92AF92BF9223
:10051000CF92DF92EF92FF920F931F93CF93DF93CF
:1005200000D01F92CDB7DEB769837A838B839C831B
:10053000E114F10409F094C011230CF445C0DA0170
:10054000C901880F991FAA1FBB1F880F991FAA1FD7
:10055000BB1F9C01AD01220F331F441F551F220FEB
:10056000331F441F551FA1E0B0E002C0AA0FBB1FFC
:100570000A95E2F70E943A062B013C010F2EFAE0A1
:10058000CF2ED12CE12CF12CF02D69817A818B8139
:100590009C81A70196010E94100649015A01C301DE
:1005A000B201A70196010E941006821A930AA40ABA
:1005B000B50AC301B20124E630E040E050E00E94F9
:1005C000100629013A01DBC0DA01C901880F991F21
:1005D000AA1FBB1F880F991FAA1FBB1F2C013D011B
:1005E000440C551C661C771C440C551C661C771C5F
:1005F0000F2EFAE0CF2ED12CE12CF12CF02D6981B9
:100600007A818B819C81A70196010E941006490185
:100610005A01C301B201A70196010E941006D5013B
:10062000C401821B930BA40BB50B9C01AD0111956A
:1006300001951109A1E0B0E002C0AA0FBB1F0A9505
:10064000E2F70E943A064B015C01C301B20124E6C5
:1006500030E040E050E00E94100629013A018FC0CE
:10066000EA94EF2809F08BC011230CF441C0DA01A1
:10067000C901880F991FAA1FBB1F880F991FAA1FA6
:10068000BB1F9C01AD01220F331F441F551FA1E06A
:10069000B0E002C0AA0FBB1F0A95E2F70E943A061B
:1006A0006B017C010F2EFAE04F2E512C612C712C26
:1006B000F02D69817A818B819C81A30192010E9436
:1006C000100649015A01C701B601A30192010E9417
:1006D0001006821A930AA40AB50AC701B60124E6D5
:1006E00030E040E050E00E94100629013A0147C086
:1006F000DA01C901880F991FAA1FBB1F880F991F14
:10070000AA1FBB1F2C013D01440C551C661C771C05
:100710000F2EFAE0CF2ED12CE12CF12CF02D698197
:100720007A818B819C81A70196010E941006490164
:100730005A01C301B201A70196010E941006D5011A
:10074000C401821B930BA40BB50B9C01AD01119549
:1007500001951109A1E0B0E002C0AA0FBB1F0A95E4
:10076000E2F70E943A064B015C01C301B20124E6A4
:1007700030E040E050E00E94100629013A01BB2021
:10078000CCF04114510461047104B9F0C501B40105
:10079000A30192010E941006CA01B9016B5F7F4F4D
:1007A0008F4F9F4F2AE030E040E050E00E9410065B
:1007B000C90105C08FEF9FEF02C08FEF9FEF249616
:1007C000CDBFDEBFDF91CF911F910F91FF90EF90D2
:1007D000DF90CF90BF90AF909F908F907F906F9061
:1007E0005F904F9008958F929F92AF92BF92CF9259
:1007F000DF92EF92FF920F931F93CF93DF93EA0163
:100800000115110509F071C03323A4F141E050E056
:10081000FA0102C0EE0FFF1F2A95E2F79F01032E97
:10082000000C440B550B0E941006DA01C901880F19
:10083000991FAA1FBB1F4C015D01880C991CAA1CA3
:10084000BB1C880C991CAA1CBB1C880E991EAA1ED6
:10085000BB1E6E01FFEFCF1ADF0ACC0CDD1CCC0CE7
:10086000DD1CCC0CDD1CCC0CDD1C0D2C000CEE08B2
:10087000FF08ADC031952195310941E050E06A0192
:1008800002C0CC0CDD1C2A95E2F78B019C01992358
:1008900024F4015F1F4F2F4F3F4FA9019801689427
:1008A00013F855954795379527951694D1F7D601A6
:1008B0000E943A06DC01CB01880F991FAA1FBB1FBB
:1008C0004C015D01880C991CAA1CBB1C880C991C4E
:1008D000AA1CBB1C880E991EAA1EBB1ECC0EDD1EB8
:1008E0000D2C000CEE08FF0872C00130110509F054
:1008F0006EC0332394F141E050E0FA0102C0EE0FE4
:10090000FF1F2A95E2F79F01032E000C440B550BA5
:100910000E941006DA01C901880F991FAA1FBB1F88
:100920004C015D01880C991CAA1CBB1C880C991CED
:10093000AA1CBB1C880E991EAA1EBB1E6E01FFEFCF
:10094000CF1ADF0ACC0CDD1CCC0CDD1CCC0CDD1C62
:100950000D2C000CEE08FF083AC0319521953109A5
:1009600041E050E06A0102C0CC0CDD1C2A95E2F7A0
:100970008B019C01992324F4095F1F4F2F4F3F4F98
:10098000A9019801689412F85595479537952795D0
:100990001694D1F7D6010E943A06DC01CB01880FEC
:1009A000991FAA1FBB1F4C015D01880C991CAA1C32
:1009B000BB1C880C991CAA1CBB1C880E991EAA1E65
:1009C000BB1ECC0EDD1E0D2C000CEE08FF08BB205C
:1009D000D4F0C114D104E104F104C9F0C501B4019B
:1009E000A70196010E941006CA01B9016B5F7F4FF3
:1009F0008F4F9F4F2AE030E040E050E00E94100609
:100A0000CA01B90107C06FEF7FEFCB0103C06FEFE1
:100A10007FEFCB01DF91CF911F910F91FF90EF906E
:100A2000DF90CF90BF90AF909F908F9008952F92BE
:100A30003F924F925F926F927F928F929F92AF926E
:100A4000BF92CF92DF92EF92FF920F931F93CF93BB
:100A5000DF934B015C0199232CF4EFE08E0E911C87
:100A6000A11CB11C689413F8B594A794979487942B
:100A70001694D1F782169306A406B50644F48FEFB8
:100A80009FEFF8018083918388EE93E05FC0E701D8
:100A9000180129013A014B015C0181E090E0F60167
:100AA00080839183F9EFF8832FEF298309EF1FEFFC
:100AB000F601E080F180A3019201C501B4010E941A
:100AC0008002F101808391838F3F9F4188F00881EC
:100AD00019810F5F1F4F088319830830110544F3F4
:100AE000F601808191810197808391839923D4F6C7
:100AF000F101E080F180F6010081118128813981C6
:100B0000A701C501B4010E94F3039B01AC012419A4
:100B1000350946095709A8EEB3E00E942F06A30144
:100B200092010E941006E114F0E2FF0624F4253140
:100B300031052CF407C0EE24EA94FE2C03C0EE2409
:100B4000EA94FE2CF101E082F182C901DF91CF919C
:100B50001F910F91FF90EF90DF90CF90BF90AF90DB
:100B60009F908F907F906F905F904F903F902F90CD
:100B70000895AF92BF92CF92DF92EF92FF920F93C0
:100B80001F93CF93DF9300D000D0CDB7DEB7E0E462
:100B9000F6E088E0818384E082830F2EF0EAAF2EB6
:100BA000F8E0BF2EF02D83E0F5018583CE01059698
:100BB0006C01FE0133967F018E010F5F1F4F20E015
:100BC00032EC41E050E060E874E88EE190E00E9491
:100BD000170589812A81F50186838B819C81829505
:100BE0009295907F9827807F9827922F9F70892BCE
:100BF00087838D819E81892B11F488E101C08CE16E
:100C00008093A4082696CDBFDEBFDF91CF911F91C0
:100C10000F91FF90EF90DF90CF90BF90AF9008952D
:100C2000052E97FB1EF400940E94270657FD07D05F
:100C30000E94420607FC03D04EF40C942706509500
:100C40004095309521953F4F4F4F5F4F08959095B8
:100C50008095709561957F4F8F4F9F4F08950E94AB
:100C60006406A59F900DB49F900DA49F800D911DCB
:100C700011240895B7FF0C942F060E942F06821BA3
:100C8000930B0895A1E21A2EAA1BBB1BFD010DC0F8
:100C9000AA1FBB1FEE1FFF1FA217B307E407F5072C
:100CA00020F0A21BB30BE40BF50B661F771F881F08
:100CB000991F1A9469F760957095809590959B019E
:100CC000AC01BD01CF010895A29FB001B39FC00147
:100CD000A39F700D811D1124911DB29F700D811D68
:100CE0001124911D0895CF93DF93CDB7DEB7AE01E8
:100CF0004A5F5F4FFA0161917191AF01809140208D
:100D0000909141200E948D06DF91CF9108956091CE
:100D10004020709141200C94A7082F923F924F924F
:100D20005F926F927F928F929F92AF92BF92CF927B
:100D3000DF92EF92FF920F931F93CF93DF93CDB784
:100D4000DEB72B97CDBFDEBF6C017B018A01FC01B2
:100D500016821782838181FFCCC1CE0101963C01AE
:100D6000F6019381F70193FD859193FF81917F01B6
:100D7000882309F4BAC1853239F493FD859193FF34
:100D800081917F01853229F4B60190E00E94A70885
:100D9000E7CF912C212C312CFFE1F315D8F08B32C9
:100DA00079F038F4803279F08332A1F4232D206178
:100DB0001DC08D3261F0803369F4232D216016C08F
:100DC000832D8260382EE32DE4603E2E2AC0F32D61
:100DD000F8601DC037FC2DC020ED280F2A3040F0F0
:100DE0008E32B9F436FC81C1232D2064322E19C015
:100DF00036FE06C08AE0989E200D1124922E11C066
:100E0000EAE02E9E200D1124222EF32DF0623F2EBB
:100E100008C08C3621F4832D8068382E02C08836B5
:100E200041F4F70193FD859193FF81917F01811139
:100E3000B3CF982F9F7D9554933028F40C5F1F4FAC
:100E40009FE399830DC0833631F0833771F083358A
:100E500009F059C021C0F801808189830E5F1F4FBE
:100E600088248394912C530113C02801F2E04F0E83
:100E7000511CF801A080B18036FE03C0692D70E0DE
:100E800002C06FEF7FEFC5010E949C084C018201F8
:100E9000F32DFF773F2E16C0280122E0420E511C91
:100EA000F801A080B18036FE03C0692D70E002C059
:100EB0006FEF7FEFC5010E9491084C01F32DF068A0
:100EC0003F2E820133FC1BC0822D90E088169906CC
:100ED000B0F4B60180E290E00E94A7082A94F4CF13
:100EE000F50137FC859137FE81915F01B60190E0F5
:100EF0000E94A70821102A9421E0821A91088114E7
:100F0000910471F7E8C0843611F0893641F5F80193
:100F100037FE07C060817181828193810C5F1F4F12
:100F200008C060817181072E000C880B990B0E5F41
:100F30001F4FF32DFF763F2E97FF09C090958095A8
:100F4000709561957F4F8F4F9F4FF0683F2E2AE03D
:100F500030E0A3010E94E308882E861845C085373B
:100F600031F4232D2F7EB22E2AE030E025C0932DC0
:100F7000997FB92E8F36C1F018F4883579F0B5C055
:100F8000803719F0883721F0B0C0E92FE061BE2E1C
:100F9000B4FE0DC0FB2DF460BF2E09C034FE0AC0A4
:100FA000292F2660B22E06C028E030E005C020E1DF
:100FB00030E002C020E132E0F801B7FE07C06081F6
:100FC0007181828193810C5F1F4F06C060817181A6
:100FD00080E090E00E5F1F4FA3010E94E308882E7F
:100FE0008618FB2DFF773F2E36FE0DC0232D2E7F5A
:100FF000A22E891458F434FE0BC032FC09C0832D94
:101000008E7EA82E05C0B82CA32C03C0B82C01C01E
:10101000B92CA4FE0FC0FE01E80DF11D80818033C4
:1010200021F49A2D997EA92E09C0A2FE06C0B39480
:10103000B39404C08A2D867809F0B394A3FC11C040
:10104000A0FE06C0B21488F4280C922C9B180EC087
:10105000B21460F4B60180E290E00E94A708B39455
:10106000F7CFB21418F42B1802C0982C212CA4FE30
:1010700010C0B60180E390E00E94A708A2FE17C04E
:10108000A1FC03C088E790E002C088E590E0B601CB
:101090000CC08A2D867859F0A1FE02C08BE201C0F7
:1010A00080E2A7FC8DE2B60190E00E94A7088914B7
:1010B00038F4B60180E390E00E94A7089A94F7CF35
:1010C0008A94F301E80DF11D8081B60190E00E9441
:1010D000A7088110F5CF222009F442CEB60180E2A4
:1010E00090E00E94A7082A94F6CFF60186819781A6
:1010F00002C08FEF9FEF2B96CDBFDEBFDF91CF9168
:101100001F910F91FF90EF90DF90CF90BF90AF9025
:101110009F908F907F906F905F904F903F902F9017
:101120000895FC010590615070400110D8F780953A
:1011300090958E0F9F1F0895FC01615070400190A3
:101140000110D8F7809590958E0F9F1F08950F93EB
:101150001F93CF93DF93FB01238121FD03C08FEF0A
:101160009FEF2CC022FF16C0468157812481358114
:101170004217530744F4A081B1819D012F5F3F4F77
:10118000208331838C93268137812F5F3F4F2683C5
:10119000378314C08B01EC01FB010084F185E02D45
:1011A0001995892BE1F6D80116968D919C91179788
:1011B000019616968D939C931797CE01DF91CF9150
:1011C0001F910F910895FA01AA27283051F120317B
:1011D00081F1E8946F936E7F6E5F7F4F8F4F9F4FCB
:1011E000AF4FB1E03ED0B4E03CD0670F781F891F0D
:1011F0009A1FA11D680F791F8A1F911DA11D6A0FDB
:10120000711D811D911DA11D20D009F468943F918D
:101210002AE0269F11243019305D3193DEF6CF018C
:101220000895462F4770405D4193B3E00FD0C9F752
:10123000F6CF462F4F70405D4A3318F0495D31FDBF
:101240004052419302D0A9F7EACFB4E0A695979512
:10125000879577956795BA95C9F7009761057105E8
:1012600008959B01AC010A2E069457954795379532
:101270002795BA95C9F7620F731F841F951FA01D8C
:061280000895F894FFCF71
:101286000000000200000000000000000000000056
:101296000001000000000000000000004225632558
:1012A60063256325632563256325632563256325F8
:0E12B600632563256325632563256325630097
:00000001FF
