:100000000C94FE000C9424010C9424010C94240103
:100010000C9424010C9424010C9424010C942401CC
:100020000C9424010C9424010C9424010C942401BC
:100030000C9424010C9424010C9424010C942401AC
:100040000C9424010C9424010C9424010C9424019C
:100050000C9424010C9424010C9424010C9424018C
:100060000C9424010C9424010C9424010C9424017C
:100070000C9424010C9424010C9424010C9424016C
:100080000C9424010C9424010C9424010C9424015C
:100090000C9424010C9424010C9424010C9424014C
:1000A0000C9424010C9424010C9424010C9424013C
:1000B0000C9424010C9424010C9424010C9424012C
:1000C0000C9424010C9424010C9424010C9424011C
:1000D0000C9424010C9424010C9424010C9424010C
:1000E0000C9424010C9424010C9424010C942401FC
:1000F0000C9424010C9424010C9424010C942401EC
:100100000C9424010C9424010C9424010C942401DB
:100110000C9424010C9424010C9424010C942401CB
:100120000C9424010C9424010C9424010C942401BB
:100130000C9424010C9424010C9424010C942401AB
:100140000C9424010C9424010C9424010C9424019B
:100150000C9424010C9424010C9424010C9424018B
:100160000C9424010C9424010C9424010C9424017B
:100170000C9424010C9424010C9424010C9424016B
:100180000C9424010C9424010C9424010C9424015B
:100190000C9424010C9424010C9424010C9424014B
:1001A0000C9424010C9424010C9424010C9424013B
:1001B0000C9424010C9424010C9424010C9424012B
:1001C0000C9424010C9424010C9424010C9424011B
:1001D0000C9424010C9424010C9424010C9424010B
:1001E0000C9424010C9424010C9424010C942401FB
:1001F0000C9424010C9494010C94A90111241FBEA9
:10020000CFEFCDBFDFE3DEBF00E00CBF18BE19BEED
:100210001ABE1BBE10E2A0E0B0E2E2EDF0E100E0A9
:100220000BBF02C007900D92A232B107D9F71BBED7
:1002300020E2A2E2B0E201C01D92A832B207E1F7CB
:100240000E9441010C9467080C94000080931820D0
:10025000909319206093082070930920892B31F026
:100260008EE090E28093222090932320672B41F030
:10027000E2E2F0E280E090E28483958382839383DC
:10028000089581E0809380060E94E50469EA71E0A8
:1002900084E991E00E942601CCE1D0E20E94610154
:1002A0009F938F93DF93CF930E949F058FE493ECEE
:1002B0000197F1F700C000000F900F900F900F9082
:1002C000EDCFE0E6F6E080E18483808580E2848300
:1002D000808580E48483808590E020E82483982FC3
:1002E00088279295907F20851482822B0895E0EADA
:1002F000F8E081818823ECF7E0EAF8E08081218151
:100300002C7190E4299F9001112441E050E08D3040
:1003100011F040E050E0242B352B232B11F490E01A
:1003200008958AE090E008950E9477010895CF93A0
:10033000C82F8A3019F48DE00E949701E0EAF8E0B6
:10034000818185FFFDCFC093A00880E090E0CF9130
:1003500008950E94970108954F925F926F927F9245
:100360008F929F92AF92BF92CF92DF92EF92FF92C5
:100370000F931F93CF93DF9300D01F92CDB7DEB7BB
:1003800069837A838B839C83E114F10409F094C020
:1003900011230CF445C0DA01C901880F991FAA1F67
:1003A000BB1F880F991FAA1FBB1F9C01AD01220F05
:1003B000331F441F551F220F331F441F551FA1E039
:1003C000B0E002C0AA0FBB1F0A95E2F70E946605C3
:1003D0002B013C010F2EFAE0CF2ED12CE12CF12C79
:1003E000F02D69817A818B819C81A70196010E9401
:1003F0003C0549015A01C301B201A70196010E94BF
:100400003C05821A930AA40AB50AC301B20124E684
:1004100030E040E050E00E943C0529013A01DBC099
:10042000DA01C901880F991FAA1FBB1F880F991FE6
:10043000AA1FBB1F2C013D01440C551C661C771CD8
:10044000440C551C661C771C0F2EFAE0CF2ED12CC5
:10045000E12CF12CF02D69817A818B819C81A7019F
:1004600096010E943C0549015A01C301B201A7014E
:1004700096010E943C05D501C401821B930BA40B7D
:10048000B50B9C01AD01119501951109A1E0B0E0FA
:1004900002C0AA0FBB1F0A95E2F70E9466054B0136
:1004A0005C01C301B20124E630E040E050E00E946C
:1004B0003C0529013A018FC0EA94EF2809F08BC06E
:1004C00011230CF441C0DA01C901880F991FAA1F3A
:1004D000BB1F880F991FAA1FBB1F9C01AD01220FD4
:1004E000331F441F551FA1E0B0E002C0AA0FBB1F7D
:1004F0000A95E2F70E9466056B017C010F2EFAE077
:100500004F2E512C612C712CF02D69817A818B81B9
:100510009C81A30192010E943C0549015A01C70137
:10052000B601A30192010E943C05821A930AA40A13
:10053000B50AC701B60124E630E040E050E00E9471
:100540003C0529013A0147C0DA01C901880F991F0A
:10055000AA1FBB1F880F991FAA1FBB1F2C013D019B
:10056000440C551C661C771C0F2EFAE0CF2ED12CA4
:10057000E12CF12CF02D69817A818B819C81A7017E
:1005800096010E943C0549015A01C301B201A7012D
:1005900096010E943C05D501C401821B930BA40B5C
:1005A000B50B9C01AD01119501951109A1E0B0E0D9
:1005B00002C0AA0FBB1F0A95E2F70E9466054B0115
:1005C0005C01C301B20124E630E040E050E00E944B
:1005D0003C0529013A01BB20CCF0411451046104CF
:1005E0007104B9F0C501B401A30192010E943C0558
:1005F000CA01B9016B5F7F4F8F4F9F4F2AE030E0F8
:1006000040E050E00E943C05C90105C08FEF9FEF1C
:1006100002C08FEF9FEF2496CDBFDEBFDF91CF9159
:100620001F910F91FF90EF90DF90CF90BF90AF9010
:100630009F908F907F906F905F904F9008958F92D2
:100640009F92AF92BF92CF92DF92EF92FF920F9361
:100650001F93CF93DF93EA010115110509F071C0D3
:100660003323A4F141E050E0FA0102C0EE0FFF1F76
:100670002A95E2F79F01032E000C440B550B0E94B4
:100680003C05DA01C901880F991FAA1FBB1F4C0145
:100690005D01880C991CAA1CBB1C880C991CAA1C07
:1006A000BB1C880E991EAA1EBB1E6E01FFEFCF1A3F
:1006B000DF0ACC0CDD1CCC0CDD1CCC0CDD1CCC0C06
:1006C000DD1C0D2C000CEE08FF08ADC03195219506
:1006D000310941E050E06A0102C0CC0CDD1C2A95D2
:1006E000E2F78B019C01992324F4015F1F4F2F4FE8
:1006F0003F4FA9019801689413F855954795379590
:1007000027951694D1F7D6010E946605DC01CB012E
:10071000880F991FAA1FBB1F4C015D01880C991CF3
:10072000AA1CBB1C880C991CAA1CBB1C880E991EF9
:10073000AA1EBB1ECC0EDD1E0D2C000CEE08FF0801
:1007400072C00130110509F06EC0332394F141E00D
:1007500050E0FA0102C0EE0FFF1F2A95E2F79F0159
:10076000032E000C440B550B0E943C05DA01C90115
:10077000880F991FAA1FBB1F4C015D01880C991C93
:10078000AA1CBB1C880C991CAA1CBB1C880E991E99
:10079000AA1EBB1E6E01FFEFCF1ADF0ACC0CDD1CB8
:1007A000CC0CDD1CCC0CDD1C0D2C000CEE08FF0865
:1007B0003AC031952195310941E050E06A0102C00B
:1007C000CC0CDD1C2A95E2F78B019C01992324F4C3
:1007D000095F1F4F2F4F3F4FA9019801689412F8EE
:1007E00055954795379527951694D1F7D6010E94D0
:1007F0006605DC01CB01880F991FAA1FBB1F4C01A6
:100800005D01880C991CAA1CBB1C880C991CAA1C95
:10081000BB1C880E991EAA1EBB1ECC0EDD1E0D2C05
:10082000000CEE08FF08BB20D4F0C114D104E10491
:10083000F104C9F0C501B401A70196010E943C056D
:10084000CA01B9016B5F7F4F8F4F9F4F2AE030E0A5
:1008500040E050E00E943C05CA01B90107C06FEFBB
:100860007FEFCB0103C06FEF7FEFCB01DF91CF9123
:100870001F910F91FF90EF90DF90CF90BF90AF90BE
:100880009F908F9008952F923F924F925F926F9218
:100890007F928F929F92AF92BF92CF92DF92EF9210
:1008A000FF920F931F93CF93DF934B015C0199232A
:1008B0002CF4EFE08E0E911CA11CB11C689413F86F
:1008C000B594A794979487941694D1F782169306BB
:1008D000A406B50644F48FEF9FEFF801808391835F
:1008E00088EE93E05FC0E701180129013A014B014E
:1008F0005C0181E090E0F60180839183F9EFF88359
:100900002FEF298309EF1FEFF601E080F180A301AB
:100910009201C501B4010E94AC01F1018083918371
:100920008F3F9F4188F0088119810F5F1F4F088317
:1009300019830830110544F3F601808191810197F4
:10094000808391839923D4F6F101E080F180F60150
:100950000081118128813981A701C501B4010E945C
:100960001F039B01AC012419350946095709A8EE5C
:10097000B3E00E945B05A30192010E943C05E114D3
:10098000F0E2FF0624F4253131052CF407C0EE24F3
:10099000EA94FE2C03C0EE24EA94FE2CF101E082DE
:1009A000F182C901DF91CF911F910F91FF90EF90DC
:1009B000DF90CF90BF90AF909F908F907F906F907F
:1009C0005F904F903F902F900895AF92BF92CF923B
:1009D000DF92EF92FF920F931F93CF93DF9300D09C
:1009E00000D0CDB7DEB7E0E4F6E088E0818384E0B4
:1009F00082830F2EF0EAAF2EF8E0BF2EF02D83E0B9
:100A0000F5018583CE0105966C01FE0133967F01C9
:100A10008E010F5F1F4F20E032EC41E050E060E8B4
:100A200074E88EE190E00E94430489812A81F501F7
:100A300086838B819C8182959295907F9827807F79
:100A40009827922F9F70892B87838D819E81892B78
:100A500011F488E101C08CE18093A4082696CDBFF3
:100A6000DEBFDF91CF911F910F91FF90EF90DF904C
:100A7000CF90BF90AF900895052E97FB1EF4009481
:100A80000E94530557FD07D00E946E0507FC03D056
:100A90004EF40C94530550954095309521953F4F59
:100AA0004F4F5F4F089590958095709561957F4F5A
:100AB0008F4F9F4F08950E949005A59F900DB49F62
:100AC000900DA49F800D911D11240895B7FF0C94E3
:100AD0005B050E945B05821B930B0895A1E21A2E11
:100AE000AA1BBB1BFD010DC0AA1FBB1FEE1FFF1FD2
:100AF000A217B307E407F50720F0A21BB30BE40B22
:100B0000F50B661F771F881F991F1A9469F7609568
:100B10007095809590959B01AC01BD01CF01089522
:100B2000A29FB001B39FC001A39F700D811D11242E
:100B3000911DB29F700D811D1124911D0895CF93B9
:100B4000DF93CDB7DEB7AE014A5F5F4FFA01619127
:100B50007191AF0180912420909125200E94B305CE
:100B6000DF91CF9108952F923F924F925F926F92B3
:100B70007F928F929F92AF92BF92CF92DF92EF922D
:100B8000FF920F931F93CF93DF93CDB7DEB72B97D1
:100B9000CDBFDEBF6C017B018A01FC01168217828A
:100BA000838181FFCCC1CE0101963C01F601938186
:100BB000F70193FD859193FF81917F01882309F4CB
:100BC000BAC1853239F493FD859193FF81917F01FC
:100BD000853229F4B60190E00E94CD07E7CF912C31
:100BE000212C312CFFE1F315D8F08B3279F038F459
:100BF000803279F08332A1F4232D20611DC08D3223
:100C000061F0803369F4232D216016C0832D82604A
:100C1000382EE32DE4603E2E2AC0F32DF8601DC06F
:100C200037FC2DC020ED280F2A3040F08E32B9F469
:100C300036FC81C1232D2064322E19C036FE06C039
:100C40008AE0989E200D1124922E11C0EAE02E9E7B
:100C5000200D1124222EF32DF0623F2E08C08C3679
:100C600021F4832D8068382E02C0883641F4F701C4
:100C700093FD859193FF81917F018111B3CF982FCF
:100C80009F7D9554933028F40C5F1F4F9FE3998309
:100C90000DC0833631F0833771F0833509F059C0C8
:100CA00021C0F801808189830E5F1F4F88248394BF
:100CB000912C530113C02801F2E04F0E511CF80192
:100CC000A080B18036FE03C0692D70E002C06FEFD6
:100CD0007FEFC5010E94C2074C018201F32DFF770F
:100CE0003F2E16C0280122E0420E511CF801A080C0
:100CF000B18036FE03C0692D70E002C06FEF7FEF58
:100D0000C5010E94B7074C01F32DF0683F2E820108
:100D100033FC1BC0822D90E088169906B0F4B60112
:100D200080E290E00E94CD072A94F4CFF50137FCD1
:100D3000859137FE81915F01B60190E00E94CD0759
:100D400021102A9421E0821A91088114910471F7EC
:100D5000E8C0843611F0893641F5F80137FE07C046
:100D600060817181828193810C5F1F4F08C0608117
:100D70007181072E000C880B990B0E5F1F4FF32D0E
:100D8000FF763F2E97FF09C09095809570956195ED
:100D90007F4F8F4F9F4FF0683F2E2AE030E0A30136
:100DA0000E940908882E861845C0853731F4232D06
:100DB0002F7EB22E2AE030E025C0932D997FB92EE8
:100DC0008F36C1F018F4883579F0B5C0803719F046
:100DD000883721F0B0C0E92FE061BE2EB4FE0DC00F
:100DE000FB2DF460BF2E09C034FE0AC0292F2660F7
:100DF000B22E06C028E030E005C020E130E002C09D
:100E000020E132E0F801B7FE07C060817181828184
:100E100093810C5F1F4F06C06081718180E090E07C
:100E20000E5F1F4FA3010E940908882E8618FB2D14
:100E3000FF773F2E36FE0DC0232D2E7FA22E891464
:100E400058F434FE0BC032FC09C0832D8E7EA82ED0
:100E500005C0B82CA32C03C0B82C01C0B92CA4FE2B
:100E60000FC0FE01E80DF11D8081803321F49A2D21
:100E7000997EA92E09C0A2FE06C0B394B39404C003
:100E80008A2D867809F0B394A3FC11C0A0FE06C099
:100E9000B21488F4280C922C9B180EC0B21460F483
:100EA000B60180E290E00E94CD07B394F7CFB21470
:100EB00018F42B1802C0982C212CA4FE10C0B601E7
:100EC00080E390E00E94CD07A2FE17C0A1FC03C002
:100ED00088E790E002C088E590E0B6010CC08A2D5A
:100EE000867859F0A1FE02C08BE201C080E2A7FC27
:100EF0008DE2B60190E00E94CD07891438F4B60166
:100F000080E390E00E94CD079A94F7CF8A94F30192
:100F1000E80DF11D8081B60190E00E94CD0781109F
:100F2000F5CF222009F442CEB60180E290E00E9483
:100F3000CD072A94F6CFF6018681978102C08FEF04
:100F40009FEF2B96CDBFDEBFDF91CF911F910F9109
:100F5000FF90EF90DF90CF90BF90AF909F908F90D9
:100F60007F906F905F904F903F902F900895FC017D
:100F70000590615070400110D8F7809590958E0FC4
:100F80009F1F0895FC016150704001900110D8F737
:100F9000809590958E0F9F1F08950F931F93CF9369
:100FA000DF93FB01238121FD03C08FEF9FEF2CC056
:100FB00022FF16C04681578124813581421753078D
:100FC00044F4A081B1819D012F5F3F4F2083318385
:100FD0008C93268137812F5F3F4F2683378314C040
:100FE0008B01EC01FB010084F185E02D1995892B23
:100FF000E1F6D80116968D919C9117970196169659
:101000008D939C931797CE01DF91CF911F910F91F4
:101010000895FA01AA27283051F1203181F1E8948E
:101020006F936E7F6E5F7F4F8F4F9F4FAF4FB1E0DB
:101030003ED0B4E03CD0670F781F891F9A1FA11DD6
:10104000680F791F8A1F911DA11D6A0F711D811DD7
:10105000911DA11D20D009F468943F912AE0269F9C
:1010600011243019305D3193DEF6CF010895462FFB
:101070004770405D4193B3E00FD0C9F7F6CF462FDC
:101080004F70405D4A3318F0495D31FD4052419345
:1010900002D0A9F7EACFB4E0A69597958795779502
:1010A0006795BA95C9F700976105710508959B0189
:1010B000AC010A2E06945795479537952795BA9512
:1010C000C9F7620F731F841F951FA01D0895F89420
:0210D000FFCF50
:1010D200000000020000000000000000000000000C
:1010E20000010000000000000000000025303478FC
:0210F2000000FC
:00000001FF
